:040000000C944D000F
:100004000C9400000C9400000C9400000C9400006C
:100014000C9400000C9400000C9400000C9400005C
:100024000C9400000C9400000C9400000C9400004C
:100034000C947A000C9400000C9499000C94000029
:100044000C9400000C94CB000C9400000C94000061
:100054001027E80364000A000100001000011000EA
:100064000100000000000000000000006002000029
:100074000000000000000025640080C001000200B0
:100084006600080004006800010060027A000200B3
:1000940031037E000000F894EE27ECBBF1E0FBBFD7
:1000A400EBBFE5BF8DE0A2E0BB27ED938A95E9F7AE
:1000B40080E098E0A0E6ED930197E9F7E0E8F0E04E
:1000C40085919591009761F0A591B5910590159052
:1000D400BF01F00105900D920197E1F7FB01F0CF0C
:1000E400EFE5EDBFE8E0EEBFC0E6D2E00C94DA0045
:1000F400EA93FA93EFB7EA931A930A931BB10CB1FC
:10010400E12FEC7189F4E72D7394F0E0EF59FD4F82
:100114000083E8ECE71509F477249394E8ECE915F7
:1001240019F49924689420F80991199112C0EA935A
:10013400FA93EFB7EA93AA2061F0AA94EB2DB39453
:10014400F0E0E75DFC4FE081ECB9E8E0EB1509F481
:10015400BB24E991EFBFF991E9911895AA93E8E0DE
:10016400EA15E9F3F894AA2011F45D990DC0E82D7D
:100174008394F0E0E75DFC4FA881A083E8E0E815F4
:1001840009F48824A39402C0E881ECB978940C940F
:100194008E031895AA93E881E7B983E08A95F1F76D
:1001A400369A349BFECF349AE4B1F5B10C948E03A5
:1001B4002C978AE0A2E0B0E0E0E7F0E00E943B0484
:1001C40000E010E020E030E040E050E0E0E0EABB96
:1001D400EBBBE7BBE8BBE4BBE5BBE1BBE2BBE3BF16
:1001E400E2BFECBFEFBDEEBDEDBDECBDE7BDE6BDCE
:1001F400EBBDEABDE9BDE8BDE2BDE5BDE4BDE3BDDF
:10020400E9BFE5BFE4BFEBB9E8EDEAB9E7ECE0BD6F
:10021400EBE0E8B9E0E0E7B9E4E8E6B9E0E0E0BF44
:10022400EDB9E6BFA0E10E9462037894A0E0B2DFDA
:100234008F01D801E4E0F0E00E940D04E983A1E01D
:10024400A9DFEE83FF83A2E0A5DFEC83FD83AE810B
:10025400BF81EA17FB0714F4E1E601C0E2E6E88394
:100264000E942E03EA81FB81FA93EA93EBE7F0E024
:10027400FA93EA93ED81FF27662777270E942804E3
:1002840084E089D12896AA81BB810E945103E0E0D1
:10029400EA93A1E00E942103A8810E943A03A98164
:1002A4000E94A903A8810E94A903C0CFFFCFBA93DB
:1002B400AA931A930A93AA81BB8112960E942004DE
:1002C400309759F1AA81BB8114960E9420048F01B2
:1002D400309761F00230E0E01E0798F0F8013197A2
:1002E4008F01AA81BB811496ED93FC93AA81BB81F3
:1002F4001296ED91FD913196FE93EE933197AC8178
:10030400A083AA81BB810E942004FF232AF0ED91DF
:10031400FD913196FE93EE9306C0AA81BB81EFEF67
:10032400FFEFED93FC931981088125960895BA9304
:10033400AA9326970E942D0410E0AC85BD85E0E0C9
:10034400F0E0ED93FC93EA89FB893196EA8BFB8B11
:100354003197E4912E2FE03009F415C1E12FE030FC
:1003640039F4253211F411E002C00E94AF030AC12E
:10037400E130A9F4253219F40E94AF0302C112E05E
:1003840040E000E02D3211F401E0FCC02B3211F406
:100394004BE2F8C0203211F440E2F4C002C0E23073
:1003A40039F450E013E0203311F40068EBC003C0CB
:1003B400E33009F0E7C0203310F02A3308F007C017
:1003C400AAE05A9F502DE22FE0535E0FDBC0E22FCC
:1003D400E33649F40E94B603E889F989A481AA9313
:1003E4000E94BC03CEC0E33741F40E94B6030E94CE
:1003F400C2030E9490031E2F0AC0E03761F40E94DA
:10040400B6030E94C2030E949C031E2F0860026070
:100414000F7730E034C0E43611F0E93611F40460AB
:1004240002C0E53731F4E4E5F0E0EE83FF8315E044
:100434000CC0E83511F4086003C0E83709F0A1C026
:10044400EEE5F0E0EE83FF8314E002FF14C00E94A7
:10045400B6030E94CC03AB85AA233AF4EA85FB8554
:100464000E94F603EA87FB874DE2403011F01F5FDC
:1004740001C00B7F04C00E94B6030E94CC0300FDA0
:1004840011C0151778F407FF08C002FF04C00B7FE2
:10049400242F115001C020E301C020E20E94AF03C9
:1004A4005150EFCF312F01FF17C03030A1F003FFBF
:1004B40006C0EE81FF812591EE83FF8305C0AE81E6
:1004C400BF812D91AE83BF830E94AF03503009F0EA
:1004D40051503150EACF4BC020E3EE81FF810E949E
:1004E4002404E887F987EE81FF813296EE83FF8347
:1004F400E885F985AA85BB85AE17BF0750F02F5F45
:10050400A885B985EA85FB85EA1BFB0BEA87FB878F
:10051400EFCF2A3328F003FF02C0295F01C0295D11
:1005240004FD1AC0213320F4A885B985119709F474
:1005340009C0531710F000FF01C013C020E207FFE9
:100544000BC020E3006102FF07C00B7F4A930E94A7
:10055400BC03503009F051500E94AF03503009F0F1
:1005640051503150A885B985129708F0B5CF00FFD6
:1005740008C0503031F05150E0E2EA930E94BC03CD
:10058400F8CF10E0E0CEAC85BD850E9420040E9427
:10059400340464960895FF92F82E26970E942F043F
:1005A4000E94D403309719F4EFEFFFEF23C0DE016C
:1005B40016960E94F2038D010E94D403EE83FF83FA
:1005C400E0E0E887E987DE011A960E94F2030E94C0
:1005D4002004FA93EA931A930A93E9E5F1E0FA9373
:1005E400EA93DE011A96A3DE9F01AE81BF81E0E0AB
:1005F400EC93F9010E9436042A96FF900895AA9379
:10060400E5B3EF70AE2FE881E07FEA2BE5BB82E033
:100614008A95F1F7AA9A82E08A95F1F7AA9882E07E
:100624008A95F1F779C0AA93A881E9DFE881E29578
:10063400E883A881E4DF81E18A95F1F76DC0AA938C
:10064400E881F0E0EF5CFC4FE081A981AE0FEBDFC5
:10065400D980C88022960895A2E00E94DB03ACE012
:10066400E2DFA1E00E94DB03E0E0CE2EDE2E08955F
:10067400AA93A881AA3021F0E0913503DE1648F050
:10068400E0E0EA93C394AC2DDADFA881AA3009F440
:1006940043C0D394A89AA881C6DFA8983DC0BA9352
:1006A400AA931A93A981BA81ED91A983BA831E2FC3
:1006B400E03019F0A12FDCDFF5CF188123960895DF
:1006C400AA93E4B3E06FE4BBA29AA09AA19AAA9871
:1006D400A898A998E881E0933503E058E0933303A0
:1006E400E881E054E0933403A4E1B0E00E94E8031D
:1006F4000E94E1030E94E1030E94E103A0E27FDF84
:1007040081E28A95F1F7A8E28EDFA4E08CDFA5E808
:100714008ADFA6E088DFA0DF21960895BA93AA9322
:10072400A991B991EE27FF276D91662311F03196B7
:10073400FBCF0895BA93AA93AA27BB27E991F9910D
:100744000590002011F01196FBCFFD0108950E9441
:10075400B000A8ECB0E00C94E8032A93AD85BE8504
:10076400EF85F88909950895E889F9893497E88B24
:10077400F98B0895AD85BE85EF85F88909950895AF
:10078400A889B98914960E942004EE83FF83AE8160
:10079400BF810895A889B98914960E942004EA8724
:1007A400FB870895DE011C960E94F2030E94200438
:1007B40008950E941503A3E0B0E00C94E803A0E3BD
:1007C4000E94010381E28A95F1F70895109639F0A9
:1007D4008AEF90E00197F1F7A8951197C9F708956A
:1007E4000024AF0DB01D0895F195E195F0400895F2
:1007F4000024112490E1AA0FBB1F001C111C0E1A27
:100804001F0A18F40E0E1F1E01C0A1609A9599F7D5
:10081400FD01D001089504D0EBDF0EF4E5DF089567
:10082400E894F7FF02C0E0DF6894B7FF06C0A09524
:10083400B095119600F8039400FA0895ED91FC9197
:10084400119708950590F491E02D08957A936A9391
:10085400FA93EA9308955A934A933A932A931A93EC
:100864000A9308955D814C813B812A811981088115
:100874000895AC0FBD1F05900D928A95E1F7089578
:00000001FF
