:080000000C9442000C94000076
:100008000C9400000C9400000C9400000C94000068
:100018000C9400000C9400000C9400000C94000058
:100028000C9400000C9400000C9400000C946F00D9
:100038000C9400000C9400000C9400000C94000038
:100048000C9400000C9400000C9400001027E803A6
:1000580064000A0001000010000110000100000007
:1000680000000000000080C00100020066000600D9
:1000780004006800020068026E000000F894EE2791
:10008800ECBBF1E0FBBFEBBFE5BF8DE0A2E0BB2717
:10009800ED938A95E9F780E098E0A0E6ED93019763
:1000A800E9F7E0E7F0E085919591009761F0A59177
:1000B800B59105901590BF01F00105900D9201973B
:1000C800E1F7FB01F0CFEFE5EDBFE8E0EEBFC0E6FA
:1000D800D2E00C94A500EA93FA93EFB7EA931A9347
:1000E8000A931BB10CB1E12FEC7189F4E72D7394DD
:1000F800F0E0E05AFD4F0083E8E0E71509F47724C3
:100108009394E8E0E91519F49924689420F8099182
:100118001991E991EFBFF991E99118951A939920EE
:10012800F1F3E62D6394F0E0E05AFD4F1081E8E02A
:10013800E61509F46624F8949A947894E12F1991B5
:10014800089501E020E030E0E3E0EABBE0E0EBBB4B
:10015800E8E0E7BBE0E0E8BBE4BBE5BBE1BBE2BB52
:10016800E9E6E3BFE0E0E2BFECBFEFBDEEBDEDBD09
:10017800ECBDE7BDE6BDEBBDEABDE9BDE8BDE2BD4E
:10018800E5BDE4BDE3BDE9BFE5BFE4BFEBB9E0E928
:10019800EAB9E7ECE0BDE0E8E8B9E0E0E0BFE6B9DD
:1001A800EDB9E6BF7894A0E165D0B8DF0E2F42D054
:1001B800A02FA05D4BD0023071F4B0DF1E2FA12F0D
:1001C80045D0A12FB0E0E4E1F0E00E949901AFEF43
:1001D800EA02102D1CBFE9CFFFCFAA93E5B3EF7059
:1001E800AE2FE881E07FEA2BE5BB82E08A95F1F744
:1001F800AA9A82E08A95F1F7AA9882E08A95F1F79F
:1002080064C0AA93A881E9DFE881E295E883A88120
:10021800E4DF81E18A95F1F758C0AA93E881F0E01C
:10022800E859FD4FE081A981AE0FEBDF8980B880E6
:1002380022960895A2E00E946B01ACE0E2DFA1E003
:100248000E946B01E0E0BE2E8E2E0895AA93A8812D
:10025800AA3011F08A1440F0E0E0EA93B394AB2D91
:10026800DCDFA881AA3089F18394A89AA881C9DF24
:10027800A8982BC0AA93E4B3E06FE4BBA29AA09A13
:10028800A19AAA98A898A998A880E881E058E0932C
:100298006A02E881E054E0936B02A4E1B0E00E94B6
:1002A80078010E9471010E9471010E947101A0E20F
:1002B80094DF81E28A95F1F7A8E2A3DFA4E0A1DF49
:1002C800A5E89FDFA6E09DDFB5DF219608950E948F
:1002D8000501A3E0B0E00C947801A0E30E94F100CE
:1002E80081E28A95F1F70895109639F08AEF90E047
:1002F8000197F1F7A8951197C9F70895F195E19538
:10030800F04008950024112490E1AA0FBB1F001C9F
:10031800111C0E1A1F0A18F40E0E1F1E01C0A16030
:100328009A9599F7FD01D001089504D0EBDF0EF4FA
:10033800E5DF0895E894F7FF02C0E0DF6894B7FFAF
:1003480006C0A095B095119600F8039400FA089598
:00000001FF
