:080000000C9441000C94000077
:100008000C9400000C9400000C9400000C94000068
:100018000C9400000C9400000C9400000C94000058
:100028000C9400000C9400000C9400000C946E00DA
:100038000C9400000C9400000C9400000C94000038
:100048000C9400000C9400000C9400001027E803A6
:1000580064000A0001000010000110000100000007
:100068000000000080C001000200660004000400D7
:100078006800020068026C000000F894EE27ECBBF0
:10008800F1E0FBBFEBBFE5BF8DE0A2E0BB27ED933E
:100098008A95E9F780E098E0A0E6ED930197E9F703
:1000A800EEE6F0E085919591009761F0A591B59104
:1000B80005901590BF01F00105900D920197E1F7A9
:1000C800FB01F0CFEFE5EDBFE8E0EEBFC0E6D2E020
:1000D8000C94A400EA93FA93EFB7EA931A930A935D
:1000E8001BB10CB1E12FEC7189F4E52D5394F0E0CC
:1000F800E05AFD4F0083E8E0E51509F455247394B0
:10010800E8E0E71519F47724689420F80991199123
:10011800E991EFBFF991E99118951A937720F1F3D6
:10012800E42D4394F0E0E05AFD4F1081E8E0E41537
:1001380009F44424F8947A947894E12F1991089555
:1001480000E010E020E030E0E0E8EABBE0E0EBBBF4
:10015800E8E0E7BBE0E0E8BBE4BBE5BBE1BBE2BB52
:10016800E8E6E3BFE0E0E2BFECBFEFBDEEBDEDBD0A
:10017800ECBDE7BDE6BDEBBDEABDE9BDE8BDE2BD4E
:10018800E5BDE4BDE3BDE9BFE5BFE4BFEBB9E0E928
:10019800EAB9E7ECE0BDE0E8E8B9E0E0E0BFE6B9DD
:1001A800EDB9E6BFA8E049D07894B7DF5E2F5230AA
:1001B800B1F4B3DF0E2F1127B0DF2E2F3327F9014B
:1001C800AAE0B0E00E9471010E0F1F1FD801E4E100
:1001D800F0E00E948901AFEFEA02F001ECBFE5CF41
:1001E800FFCFAA93E5B3EF70AE2FE881E07FEA2B4B
:1001F800E5BB82E08A95F1F7AA9A82E08A95F1F741
:10020800AA9882E08A95F1F743C0AA93A881E9DF0A
:10021800E881E295E883A881E4DF81E18A95F1F736
:1002280037C0A2E00E944E01ACE0EFDFA1E00E94DF
:100238004E01E0E09E2E6E2E0895AA93E4B3E06F7F
:10024800E4BBA29AA09AA19AAA98A898A99888808B
:10025800E881E058E0936A02E881E054E0936B0299
:10026800A4E1B0E00E945B010E9454010E94540185
:100278000E945401A0E2B5DF81E28A95F1F7A8E275
:10028800C4DFA4E0C2DFA5E8C0DFA6E0BEDFC9DFA7
:10029800219608950E940901A3E0B0E00C945B0147
:1002A800A0E30E94F50081E28A95F1F7089510967F
:1002B80039F08AEF90E00197F1F7A8951197C9F7FF
:1002C8000895F195E195F0400895FA9FF02DEB9F80
:1002D800F00DEA9FE02DF10D08951CD0F6DF0EF425
:1002E800F0DF08950024112490E1AA0FBB1F001C21
:1002F800111C0E1A1F0A18F40E0E1F1E01C0A16051
:100308009A9599F7FD01D001089504D0EBDF0EF41A
:10031800D8DF0895E894F7FF02C0D3DF6894B7FFE9
:1003280006C0A095B095119600F8039400FA0895B8
:00000001FF
