:0A0000000C9452000C9413010C94B0
:10000A0041010C9400000C9400000C9400000C9424
:10001A0000000C9400000C9400000C9400000C9456
:10002A0000000C9400000C9400000C947F000C94C7
:10003A0000000C94C6000C9400000C9400000C9470
:10004A0000000C9400000C9400001027E8036400E0
:10005A000A00010000100001100001000000000069
:10006A0000000000000000000074656D703A25640D
:10007A00000080C00100020066000A000400680057
:10008A000100600272000100610272000100620256
:10009A007200020078027C000000F894EE27ECBBA4
:1000AA00F1E0FBBFEBBFE5BF8DE0A2E0BB27ED931C
:1000BA008A95E9F780E098E0A0E6ED930197E9F7E1
:1000CA00EEE7F0E085919591009761F0A591B591E1
:1000DA0005901590BF01F00105900D920197E1F787
:1000EA00FB01F0CFEFE5EDBFE8E0EEBFC0E6D2E0FE
:1000FA000C94D5010E947E0420E632E01BB10CB1BB
:10010A00E0E0EA93A0E00E943F02013631F40E9447
:10011A008E04A1E60E94950417C0023631F40E94AB
:10012A008E04A2E60E9495040FC03A932A93E3E74D
:10013A00F0E0FA93EA93E02FFF27662777270E94D9
:10014A009B04D9010E947E02E12FEC71B1F4EC2DDF
:10015A00C394F0E0ED59FD4F0083E8E0EC1509F493
:10016A00CC24A0916C02AF5FA0936C02A83029F452
:10017A00E0E0E0936C02689420F80E941805249647
:10018A0001C1AA93EA93FA93EFB7EA93E09177024F
:10019A00E030A9F0E150E0937702E0917602EF5F58
:1001AA00E0937602E150F0E0E359FD4FE081ECB9CB
:1001BA00A0917602A83019F4E0E0E0937602E99182
:1001CA00EFBFF991E991A9911895AA93A0917702A5
:1001DA00A830E1F3F894E0917702E03011F45D99E8
:1001EA0018C0E0917502EF5FE0937502E150F0E00C
:1001FA00E359FD4FA881A083A0917502A83019F494
:10020A00E0E0E0937502E0917702EF5FE093770216
:10021A0002C0E881ECB978940C94BB020E947E0477
:10022A0001E612E0A52DEAE0EA9FF001DF01E42DE4
:10023A00F0E0EA0FFB1F9F012531E0E03E0714F0D2
:10024A0024E130E01A930A93E8E7F0E0FA93EA939C
:10025A00F9010E94FD040E949B04D8010E947E02BB
:10026A00A2E00E94A204A22F0E94A20455244424C0
:10027A000E941805249686C00A921A92FA926A93E4
:10028A007A938A939A93AA93BA93EA93FA93EFB7D3
:10029A00EA93E9B3EF70AE2EF0E0309711F4E0E3A1
:1002AA0059C0E130A0E0FA0711F4E1E353C0E230AB
:1002BA00A0E0FA0711F4E2E34DC0E330A0E0FA0748
:1002CA0011F4E3E347C0E430A0E0FA0711F4E4E3F1
:1002DA0041C0E530A0E0FA0711F4E5E33BC0E6309F
:1002EA00A0E0FA0711F4E6E335C0E730A0E0FA0728
:1002FA0011F4E7E32FC0E830A0E0FA0711F4E8E3CD
:10030A0029C0E930A0E0FA0711F4E9E323C0EA3092
:10031A00A0E0FA0711F4E1E41DC0EB30A0E0FA070F
:10032A0011F4E2E417C0EC30A0E0FA0711F4E3E4B8
:10033A0011C0ED30A0E0FA0711F4E4E40BC0EE308E
:10034A00A0E0FA0711F4E5E405C0EF30A0E0FA07EF
:10035A0011F4E6E4BE2EE1E0DE1698F4D394062CFE
:10036A00072841F4E0E00E94A8045E2EE1E0F0E0F4
:10037A003F0106C0E1E00E94A8044E2E66247724BD
:10038A0001C0DD24E991EFBFF991E991B991A991F1
:10039A009991899179916991F99019900990189593
:1003AA002997E0E0E883E983EA83EB83EC83E2E6DA
:1003BA00F2E0ED83FE83E0E0EABBEBBBE1E0E7BB02
:1003CA00E0E0E8BBE4BBE5BBE1BBE2BBE3BFE2BF05
:1003DA00ECBFEFBDEEBDEDBDECBDE7BDE6BDEBBDCF
:1003EA00EABDE9BDE8BDE2BDE5BDE4BDE3BDE9BFE7
:1003FA00EBB7E06CEBBFE5E0E5BFE0E0E4BFE0ECC3
:10040A00EABFE0E0EBB9E8EDEAB9E6ECE0BDE0E02E
:10041A00E0BDE3E3E9B9E0E8E8B9E0E0E0BFE6B966
:10042A00EDB9E6BFEABBEFEFEBBBA4E173D078947A
:10043A00FFCFFFCFAA93E5B3EF70AE2FE881E07F3D
:10044A00EA2BE5BB82E08A95F1F7AA9A82E08A95BF
:10045A00F1F7AA9882E08A95F1F788C0AA93A88151
:10046A00E9DFE881E295E883A881E4DF81E18A9502
:10047A00F1F77CC0AA93E881F0E0E858FD4FE081EB
:10048A00A981AE0FEBDFE981E0937C02E881E0937A
:10049A007D0222960895A2E00E94B204ACE0DEDF5B
:1004AA00A1E00E94B204E0E0E0937D02E0937C02C6
:1004BA000895AA93A881AA3031F0E0917E02A09112
:1004CA007C02AE1760F0E0E0EA93A0917D02AF5F94
:1004DA00A0937D02CFDFA881AA3009F447C0E0913A
:1004EA007C02EF5FE0937C02A89AA881B7DFA89804
:1004FA003DC0BA93AA931A93A981BA81ED91A983AF
:10050A00BA831E2FE03019F0A12FD3DFF5CF18815F
:10051A0023960895AA93E4B3E06FE4BBA29AA09A43
:10052A00A19AAA98A898A998E881E0937E02E0582F
:10053A00E0937A02E881E054E0937B02A4E1B0E020
:10054A000E94EB040E94B8040E94B8040E94B804F6
:10055A00A0E270DF81E28A95F1F7A8E27FDFA4E0EA
:10056A007DDFA5E87BDFA6E079DF95DF2196089598
:10057A00BA93AA931A930A93AA81BB8112960E94EC
:10058A000205309759F1AA81BB8114960E9402058F
:10059A008F01309761F00230E0E01E0798F0F80111
:1005AA0031978F01AA81BB811496ED93FC93AA819E
:1005BA00BB811296ED91FD913196FE93EE933197A0
:1005CA00AC81A083AA81BB810E940205FF232AF085
:1005DA00ED91FD913196FE93EE9306C0AA81BB81FF
:1005EA00EFEFFFEFED93FC931981088125960895AB
:1005FA00BA93AA9326970E940F0510E0AC85BD8591
:10060A00E0E0F0E0ED93FC93EA89FB893196EA8B0E
:10061A00FB8B3197E4912E2FE03009F415C1E12FBD
:10062A00E03039F4253211F411E002C00E94BF040F
:10063A000AC1E130A9F4253219F40E94BF0402C1AB
:10064A0012E040E000E02D3211F401E0FCC02B3250
:10065A0011F44BE2F8C0203211F440E2F4C002C0B7
:10066A00E23039F450E013E0203311F40068EBC0B3
:10067A0003C0E33009F0E7C0203310F02A3308F052
:10068A0007C0AAE05A9F502DE22FE0535E0FDBC04D
:10069A00E22FE33649F40E94C604E889F989A48165
:1006AA00AA930E94CC04CEC0E33741F40E94C60448
:1006BA000E94D2040E9465041E2F0AC0E03761F42A
:1006CA000E94C6040E94D2040E9471041E2F086070
:1006DA0002600F7730E034C0E43611F0E93611F4E5
:1006EA00046002C0E53731F4E4E5F0E0EE83FF830D
:1006FA0015E00CC0E83511F4086003C0E83709F0CA
:10070A00A1C0EEE5F0E0EE83FF8314E002FF14C01F
:10071A000E94C6040E94DC04AB85AA233AF4EA8547
:10072A00FB850E94F904EA87FB874DE2403011F00D
:10073A001F5F01C00B7F04C00E94C6040E94DC0434
:10074A0000FD11C0151778F407FF08C002FF04C0A6
:10075A000B7F242F115001C020E301C020E20E9428
:10076A00BF045150EFCF312F01FF17C03030A1F035
:10077A0003FF06C0EE81FF812591EE83FF8305C04A
:10078A00AE81BF812D91AE83BF830E94BF045030DA
:10079A0009F051503150EACF4BC020E3EE81FF817E
:1007AA000E940605E887F987EE81FF813296EE837B
:1007BA00FF83E885F985AA85BB85AE17BF0750F088
:1007CA002F5FA885B985EA85FB85EA1BFB0BEA87BB
:1007DA00FB87EFCF2A3328F003FF02C0295F01C04D
:1007EA00295D04FD1AC0213320F4A885B985119723
:1007FA0009F409C0531710F000FF01C013C020E22A
:10080A0007FF0BC020E3006102FF07C00B7F4A937A
:10081A000E94CC04503009F051500E94BF0450305D
:10082A0009F051503150A885B985129708F0B5CF13
:10083A0000FF08C0503031F05150E0E2EA930E94C4
:10084A00CC04F8CF10E0E0CEAC85BD850E9402054D
:10085A000E94160564960895FF92F82E26970E9424
:10086A0011050E94E404309719F4EFEFFFEF23C05B
:10087A00DE0116960E94F5048D010E94E404EE83BF
:10088A00FF83E0E0E887E987DE011A960E94F50413
:10089A000E940205FA93EA931A930A93EDEBF2E0A7
:1008AA00FA93EA93DE011A96A3DE9F01AE81BF8115
:1008BA00E0E0EC93F9010E9418052A96FF9008954A
:1008CA00BA93AA93A991B991EE27FF276D9166234E
:1008DA0011F03196FBCF0895BA93AA93AA27BB27A2
:1008EA00E991F9910590002011F01196FBCFFD01D5
:1008FA0008950A921A92FA926A937A938A939A9329
:10090A00AA93BA93EA93FA93EFB7EA930E9411056E
:10091A000895A3E00E94EA00A4E6B0E00C94EB0478
:10092A000E94EA00A4E6B0E00C94EB040E940A05D7
:10093A0084E00E943104289608950E94EA00A2E306
:10094A00B0E00C94EB04EA93A2E00E943F02AB2DC4
:10095A000E945E02EB2DE05308950E943302A3E049
:10096A00B0E00C94EB04A0E30E941F0281E28A9596
:10097A00F1F708952A93AD85BE85EF85F889099523
:10098A000895E889F9893497E88BF98B0895AD853C
:10099A00BE85EF85F88909950895A889B9891496BD
:1009AA000E940205EE83FF83AE81BF810895A88964
:1009BA00B98914960E940205EA87FB870895DE0129
:1009CA001C960E94F5040E9402050895109639F0BB
:1009DA008AEF90E00197F1F7A8951197C9F7089562
:1009EA000024AF0DB01D0895F195E195F0400895EA
:1009FA006F2F660F660B762F0895ED91FC91119774
:100A0A0008950590F491E02D08957A936A93FA93E4
:100A1A00EA9308955A934A933A932A931A930A9314
:100A2A0008955D814C813B812A811981088108954D
:00000001FF
