:040000000C94530009
:100004000C9480000C9400000C9400000C940000EC
:100014000C9400000C9400000C9400000C9400005C
:100024000C9400000C9400000C9400000C9400004C
:100034000C94B8000C9400000C94DB000C940000A9
:100044000C9400000C9400000C9400000C9400002C
:100054001027E80364000A000100001000011000EA
:1000640001000000FF000000000000000000002567
:1000740064200068656C6C6F000080C001000200A1
:1000840066000A00040068000100600272000600B5
:100094006102770001006702720002007A027E00AA
:1000A4000000F894EE27ECBBF1E0FBBFEBBFE5BF2B
:1000B4008DE0A2E0BB27ED938A95E9F780E098E014
:1000C400A0E6ED930197E9F7E0E8F0E085919591DA
:1000D400009761F0A591B59105901590BF01F001CD
:1000E40005900D920197E1F7FB01F0CFEFE5EDBF2D
:1000F400E8E0EEBFC0E6D2E00C9448010A921A92FE
:10010400FA926A937A938A939A93AA93BA93EA9304
:10011400FA93EFB7EA931A930A9300E612E01A935C
:100124000A93E3E7F0E0FA93EA93F3010E944704A9
:100134000E946F0484E00E94AF0328960E94CE01BF
:10014400A1E6B2E00E94FC0166247724099119918A
:10015400E991EFBFF991E991B991A99199918991A7
:1001640079916991F990199009901895EA93FA9305
:10017400EFB7EA931A930A931BB10CB1E12FEC7118
:1001840089F4EB2DB394F0E0E859FD4F0083E8E0E7
:10019400EB1509F4BB24D394E8E0ED1519F4DD2440
:1001A400689420F809911991E991EFBFF991E991C7
:1001B4001895AA93EA93FA93EFB7EA93E091790238
:1001C400E030A9F0E150E0937902E0917802EF5F2A
:1001D400E0937802E150F0E0E059FD4FE081ECB9A2
:1001E400A0917802A83019F4E0E0E0937802E99154
:1001F400EFBFF991E991A9911895E0E0EABBEFE02E
:10020400EBBBE0E1EABBC89903C0E1E0F0E008958C
:10021400C99903C0E4E0F0E00895CA9903C0E7E097
:10022400F0E00895CB9903C0EAE0F0E00895E0E23D
:10023400EABBC89903C0E2E0F0E00895C99903C09D
:10024400E5E0F0E00895CA9903C0E8E0F0E008951D
:10025400CB9903C0E0E0F0E00895E0E4EABBC8997C
:1002640003C0E3E0F0E00895C99903C0E6E0F0E0DC
:100274000895CA9903C0E9E0F0E00895CB9903C05A
:10028400EBE0F0E00895EFEFF0E0089507E612E008
:1002940020E030E0E0E0EABBEBBBE1E0E7BBE0E01C
:1002A400E8BBE4BBE5BBE1BBE0E8E2BBE0E0E3BF05
:1002B400E2BFECBFEFBDEEBDEDBDECBDE7BDE6BDFD
:1002C400EBBDEABDE9BDE8BDE2BDE5BDE4BDE3BD0E
:1002D400E9BFEBB7E064EBBFE1E0E5BFE0E0E4BF1A
:1002E400E0E4EABFE0E0EBB9E8EDEAB9E6ECE0BD52
:1002F400E0E0E0BDE3E3E9B9E0E8E8B9E0E0E0BF6D
:10030400E6B9EDB9E6BFA4E186D0789476DF2F0193
:10031400A4EFB1E00E943504EFEFF0E04E165F0663
:1003240044F4F301AAE0B0E00E945404E40DF51D86
:100334003F01ECCFFFCFAA93E5B3EF70AE2FE88176
:10034400E07FEA2BE5BB82E08A95F1F7AA9A82E086
:100354008A95F1F7AA9882E08A95F1F788C0AA9362
:10036400A881E9DFE881E295E883A881E4DF81E1FF
:100374008A95F1F77CC0AA93E881F0E0E658FD4F36
:10038400E081A981AE0FEBDFE981E0937E02E88191
:10039400E0937F0222960895A2E00E94FC03ACE061
:1003A400DEDFA1E00E94FC03E0E0E0937F02E09343
:1003B4007E020895AA93A881AA3031F0E0918002C8
:1003C400A0917E02AE1760F0E0E0EA93A0917F0274
:1003D400AF5FA0937F02CFDFA881AA3009F447C0A2
:1003E400E0917E02EF5FE0937E02A89AA881B7DFD6
:1003F400A8983DC0BA93AA931A93A981BA81ED91A2
:10040400A983BA831E2FE03019F0A12FD3DFF5CFD3
:10041400188123960895AA93E4B3E06FE4BBA29AEB
:10042400A09AA19AAA98A898A998E881E093800232
:10043400E058E0937C02E881E054E0937D02A4E17B
:10044400B0E00E9435040E9402040E9402040E944B
:100454000204A0E270DF81E28A95F1F7A8E27FDF6F
:10046400A4E07DDFA5E87BDFA6E079DF95DF2196B8
:100474000895BA93AA931A930A93AA81BB811296F8
:100484000E946704309759F1AA81BB8114960E9497
:1004940067048F01309761F00230E0E01E0798F0A6
:1004A400F80131978F01AA81BB811496ED93FC93D7
:1004B400AA81BB811296ED91FD913196FE93EE9344
:1004C4003197AC81A083AA81BB810E946704FF237A
:1004D4002AF0ED91FD913196FE93EE9306C0AA8128
:1004E400BB81EFEFFFEFED93FC9319810881259613
:1004F4000895BA93AA9326970E94740410E0AC85D9
:10050400BD85E0E0F0E0ED93FC93EA89FB89319648
:10051400EA8BFB8B3197E4912E2FE03009F415C15F
:10052400E12FE03039F4253211F411E002C00E94C9
:1005340009040AC1E130A9F4253219F40E9409041E
:1005440002C112E040E000E02D3211F401E0FCC0F1
:100554002B3211F44BE2F8C0203211F440E2F4C023
:1005640002C0E23039F450E013E0203311F40068A3
:10057400EBC003C0E33009F0E7C0203310F02A33A6
:1005840008F007C0AAE05A9F502DE22FE0535E0FF7
:10059400DBC0E22FE33649F40E941004E889F989AC
:1005A400A481AA930E941604CEC0E33741F40E94AA
:1005B40010040E941C040E94E3031E2F0AC0E037AB
:1005C40061F40E9410040E941C040E94EF031E2F79
:1005D400086002600F7730E034C0E43611F0E93689
:1005E40011F4046002C0E53731F4E4E5F0E0EE8391
:1005F400FF8315E00CC0E83511F4086003C0E83748
:1006040009F0A1C0EEE5F0E0EE83FF8314E002FF01
:1006140014C00E9410040E942604AB85AA233AF455
:10062400EA85FB850E944304EA87FB874DE240305C
:1006340011F01F5F01C00B7F04C00E9410040E94D0
:10064400260400FD11C0151778F407FF08C002FF47
:1006540004C00B7F242F115001C020E301C020E20D
:100664000E9409045150EFCF312F01FF17C03030E1
:10067400A1F003FF06C0EE81FF812591EE83FF8385
:1006840005C0AE81BF812D91AE83BF830E94090452
:10069400503009F051503150EACF4BC020E3EE8185
:1006A400FF810E946B04E887F987EE81FF8132960F
:1006B400EE83FF83E885F985AA85BB85AE17BF075E
:1006C40050F02F5FA885B985EA85FB85EA1BFB0BF3
:1006D400EA87FB87EFCF2A3328F003FF02C0295FA4
:1006E40001C0295D04FD1AC0213320F4A885B98511
:1006F400119709F409C0531710F000FF01C013C08B
:1007040020E207FF0BC020E3006102FF07C00B7F5C
:100714004A930E941604503009F051500E94090473
:10072400503009F051503150A885B985129708F01E
:10073400B5CF00FF08C0503031F05150E0E2EA93E9
:100744000E941604F8CF10E0E0CEAC85BD850E946F
:1007540067040E947B0464960895FF92F82E2697FE
:100764000E9476040E942E04309719F4EFEFFFEFF5
:1007740023C0DE0116960E943F048D010E942E04C0
:10078400EE83FF83E0E0E887E987DE011A960E94A2
:100794003F040E946704FA93EA931A930A93EBE3E3
:1007A400F2E0FA93EA93DE011A96A3DE9F01AE818A
:1007B400BF81E0E0EC93F9010E947D042A96FF904A
:1007C4000895BA93AA93A991B991EE27FF276D9141
:1007D400662311F03196FBCF0895BA93AA93AA2702
:1007E400BB27E991F9910590002011F01196FBCFF8
:1007F400FD0108950E94B101A3E0B0E00C9435041A
:10080400A0E30E949D0181E28A95F1F708952A935D
:10081400AD85BE85EF85F88909950895E889F9893C
:100824003497E88BF98B0895AD85BE85EF85F889FB
:1008340009950895A889B98914960E946704EE83DE
:10084400FF83AE81BF810895A889B98914960E9457
:100854006704EA87FB870895DE011C960E943F0423
:100864000E9467040895109639F08AEF90E001978A
:10087400F1F7A8951197C9F708950024AF0DB01D9D
:100884000895F195E195F04008956F2F660F660B7A
:10089400762F0895FA9FF02DEB9FF00DEA9FE02D3F
:1008A400F10D089504D0F6DF0EF4EBDF0895E8941B
:1008B400F7FF02C0E6DF6894B7FF06C0A095B095C5
:1008C400119600F8039400FA0895ED91FC911197A4
:1008D40008950590F491E02D08957A936A93FA931C
:1008E400EA9308955A934A933A932A931A930A934C
:1008F40008955D814C813B812A8119810881089585
:00000001FF
