:060000000C943D000C947D
:1000060000000C9400000C9400000C9400000C946A
:1000160000000C9400000C9400000C9400000C945A
:1000260000000C9400000C9400000C9400000C944A
:100036006A000C9400000C9400000C9400000C94D0
:1000460000000C9400000C9400000C940000102793
:10005600E80364000A00010000100001100001001E
:100066000000000000000100020066000400040019
:1000760068000000F894EE27ECBBF1E0FBBFEBBF95
:10008600E5BF8DE0A2E0BB27ED938A95E9F780E016
:1000960098E0A0E6ED930197E9F7ECE6F0E08591AC
:1000A6009591009761F0A591B59105901590BF01C6
:1000B600F00105900D920197E1F7FB01F0CFEFE516
:1000C600EDBFE8E0EEBFC0E6D2E00C94A000EA93F4
:1000D600FA93EFB7EA931A930A931BB10CB1E12F87
:1000E600EC7189F4E52D5394F0E0E05AFD4F00835E
:1000F600E8E0E51509F455247394E8E0E71519F4EA
:100106007724689420F809911991E991EFBFF99144
:10011600E99118951A937720F1F3E42D4394F0E0D2
:10012600E05AFD4F1081E8E0E41509F44424F89400
:100136007A947894E12F19910895E0E0EABBEBBB3D
:10014600E6E0E7BBE0E0E8BBE4BBE5BBE1BBE2BB66
:10015600E3BFE2BFECBFEFBDEEBDEDBDECBDE7BD5D
:10016600E6BDEBBDEABDE9BDE8BDE2BDE5BDE4BD6A
:10017600E3BDE9BFE5BFE4BFEBB9E0E9EAB9E7EC07
:10018600E0BDE0E8E8B9E0E0E0BFE6B9EDB9E6BF1A
:100196007894C0DF1E2F133049F4BCDF0E2F0136D2
:1001A60019F4C19AC29802C0C198C29AF2CFFFCF81
:00000001FF
